{
  "contractName": "FileHash",
  "abi": [
    {
      "constant": true,
      "inputs": [
        {
          "name": "",
          "type": "address"
        },
        {
          "name": "",
          "type": "bytes32"
        }
      ],
      "name": "hashRegistry",
      "outputs": [
        {
          "name": "",
          "type": "bool"
        }
      ],
      "payable": false,
      "stateMutability": "view",
      "type": "function"
    },
    {
      "constant": false,
      "inputs": [
        {
          "name": "hash",
          "type": "bytes32"
        }
      ],
      "name": "addHash",
      "outputs": [],
      "payable": false,
      "stateMutability": "nonpayable",
      "type": "function"
    }
  ],
  "bytecode": "0x608060405234801561001057600080fd5b506101b9806100206000396000f30060806040526004361061004c576000357c0100000000000000000000000000000000000000000000000000000000900463ffffffff16806343e08ad114610051578063cdcbba3414610082575b600080fd5b34801561005d57600080fd5b5061008060048036038101908080356000191690602001909291905050506100eb565b005b34801561008e57600080fd5b506100d1600480360381019080803573ffffffffffffffffffffffffffffffffffffffff169060200190929190803560001916906020019092919050505061015e565b604051808215151515815260200191505060405180910390f35b60016000803373ffffffffffffffffffffffffffffffffffffffff1673ffffffffffffffffffffffffffffffffffffffff1681526020019081526020016000206000836000191660001916815260200190815260200160002060006101000a81548160ff02191690831515021790555050565b60006020528160005260406000206020528060005260406000206000915091509054906101000a900460ff16815600a165627a7a723058209d10416f2744d6a7aaa0f0ab090a9a0d23267aa767462b647aa4a109b055e55d0029",
  "source": "pragma solidity ^0.4.24;\n\ncontract FileHash {\n  mapping (address => mapping (bytes32 => bool)) public hashRegistry;\n\n  function addHash(bytes32 hash) public {\n    hashRegistry[msg.sender][hash] = true;\n  }\n}\n",
  "sourcePath": "/home/mox/test/hashchain/contracts/FileHash.sol",
  "compiler": {
    "name": "solc",
    "version": "0.4.24+commit.e67f0147.Emscripten.clang"
  },
  "schemaVersion": "2.0.1",
  "updatedAt": "2018-09-04T16:00:29.545Z"
}